{
  "contractName": "TokenSale",
  "abi": [
    {
      "inputs": [],
      "payable": false,
      "stateMutability": "nonpayable",
      "type": "constructor"
    },
    {
      "constant": true,
      "inputs": [],
      "name": "totalSupply",
      "outputs": [
        {
          "internalType": "uint256",
          "name": "",
          "type": "uint256"
        }
      ],
      "payable": false,
      "stateMutability": "view",
      "type": "function"
    }
  ],
  "bytecode": "0x6080604052348015600f57600080fd5b50620f42406000819055506084806100286000396000f3fe6080604052348015600f57600080fd5b506004361060285760003560e01c806318160ddd14602d575b600080fd5b60336049565b6040518082815260200191505060405180910390f35b6000548156fea265627a7a723158206792601d9705e085c29dd334c629bca3034dadc151f0eb120c0d62900b56643664736f6c63430005100032",
  "source": "// SPDX-License-Identifier:UNLICENSED\npragma solidity >=0.4.21 <0.7.0;\n\ncontract TokenSale{\n    //constructor\n    //set total number of tokens\n    //read total number of tokens\n    uint256 public totalSupply;\n\n    constructor() public{\n        totalSupply = 1000000;\n    }\n}\n\n\n",
  "sourcePath": "/home/neha/Desktop/tokensale/contracts/MyToken.sol",
  "compiler": {
    "name": "solc",
    "version": "0.5.16+commit.9c3226ce.Emscripten.clang"
  },
  "schemaVersion": "3.1.0",
  "updatedAt": "2020-07-07T05:05:00.541Z",
  "networkType": "ethereum",
  "devdoc": {
    "methods": {}
  },
  "userdoc": {
    "methods": {}
  }
}